:020000040800F2
:10000000981100202102000825020008270200089C
:10001000290200082B0200082D0200080000000041
:100020000000000000000000000000002F02000897
:100030003102000800000000330200083502000809
:1000400037020008370200083702000837020008AC
:10005000370200083702000837020008370200089C
:10006000370200083702000837020008370200088C
:10007000370200083702000837020008370200087C
:10008000370200083702000837020008370200086C
:10009000D726000837020008370200083702000898
:1000A000370200083702000837020008370200084C
:1000B000531C00086B1C0008A11C00083702000834
:1000C000370200083702000837020008370200082C
:1000D00037020008D7070008630900087D2E0008D2
:1000E0001B470008370200083702000837020008E3
:1000F00037020008370200083702000837020008FC
:100100003702000837020008B31C00083702000855
:1001100037020008370200083702000837020008DB
:1001200037020008370200083702000837020008CB
:1001300000F002F800F05FF80AA090E8000C82449A
:100140008344AAF10107DA4501D100F054F8AFF277
:10015000090EBAE80F0013F0010F18BFFB1A43F0A5
:1001600001031847F4D0000014D100000A444FF0F6
:10017000000C10F8013B13F0070408BF10F8014B06
:100180001D1108BF10F8015B641E05D010F8016B4B
:10019000641E01F8016BF9D113F0080F1EBF10F8AF
:1001A000014BAD1C0C1B09D16D1E58BF01F801CBD2
:1001B000FAD505E014F8016B01F8016B6D1EF9D555
:1001C0009142D6D37047000000230024002500266A
:1001D000103A28BF78C1FBD8520728BF30C148BFAA
:1001E0000B607047642908F03983002070471FB501
:1001F0001FBD10B510BD08F001FD1146FFF7F7FF58
:1002000000F02AF808F01FFD03B4FFF7F2FF03BC6B
:1002100000F05CFA30BF72B662B680F308887047AF
:1002200008480047FEE7FEE7FEE7FEE7FEE7FEE7D9
:10023000FEE7FEE7FEE7FEE703480449044A054BF4
:100240007047000031010008980B00209811002031
:10025000980D0020980D002008B5092000F0DDF968
:10026000482000F07DF8022000F0C2F9012000F0E3
:10027000BFF900F0C9FD00F001FE002141F61F406A
:1002800001F06FFA3048006818B901202F49087052
:1002900002E000202D49087001F033F84FF4E131FD
:1002A000482000F02DFA4FF41651242000F0E4FA13
:1002B0004FF4E131242002F066FD01F0EDFA01F087
:1002C0005BFB01F0C3FB01F029FC01F0DDF801F05C
:1002D000FDFC07F08AFB07F09CFB1B480830006818
:1002E00008B902F094FC02F02FFE03F03FF801F091
:1002F00073FF00200623032202210090012001F059
:1003000095FF20E012480078012804D102F0E0FCBB
:1003100000200F4908700F48007818B908F03DF91F
:1003200007F014FE02F08EFA03F02EF800F0A7FC9E
:1003300001200949087000200849087000BF0648DC
:1003400000780028FBD1DDE73081214266000020E3
:100350007C000020040000206500002064000020D4
:100360004FF0E021096921F004014FF0E022116112
:10037000C21700EB5272C2F3C702234B1A70194620
:10038000097801EB4102C2EBC1114FF6FF7202EA9C
:10039000C1011E4A1180704701461B4A12784A4328
:1003A0004FF0E0235A6100229A6101221A6100BFD6
:1003B0004FF0E022106900F001021AB100F480321F
:1003C000002AF5D000224FF0E0231A619A617047AD
:1003D00001460E4A12884A434FF0E0235A61002238
:1003E0009A6101221A6100BF4FF0E022106900F00B
:1003F00001021AB100F48032002AF5D000224FF039
:10040000E0231A619A617047DC000020DE000020C2
:10041000A34A0A400243A34B1A60704701460723D0
:1004200023EA010212029F4B1B1D18684FF6FF03BF
:1004300018409D4B184310439A4B1B1D1860704782
:100440002DE9F0410746884614461D462846FFF729
:10045000E5FFC5F1040007FA00F60F20284100EA85
:100460000800064306F00F06E21704EBD2625211B1
:10047000920002F1E022D2F800212146E31704EBBA
:10048000D3635B11A4EB431C012303FA0CF31A435F
:100490002046E31704EBD3635B119B0003F1E023D9
:1004A000C3F800218148005D40EA06107F490855E5
:1004B000BDE8F08170B504460B46CE1701EB967689
:1004C000C6F38700CE1701EB9676B610A1EB860631
:1004D000B606350E764B9B6943F00103744EB3614B
:1004E0004FEAB63353F820300F26AE40B343714E77
:1004F00046F82030334653F8203004FA05F61E4300
:100500006C4B43F820606C4B1B6801268E403343D4
:10051000694E336002F0010343B1674B0C331B6833
:1005200001268E403343644E0C36336002F00203E2
:1005300043B1614B08331E6801238B401E435E4B61
:1005400008331E6070BD00B5002059490861C860BD
:100550001420486100208861C8610846006840F0A6
:100560000100086008464068544908405049486006
:1005700008460068524908404D490860084600682E
:1005800020F4802008600846406820F4FE0048609F
:100590000020886000214FF00060FFF739FF00BDA8
:1005A00010B540480830006840F004003D4908316B
:1005B00008603F48C06940F080503D49C8614148EB
:1005C000406840F480703F4948600846006840F049
:1005D000040008600846006840F002000860FFF769
:1005E00019FE10BD3048001D2E49091D08607047D6
:1005F000014649062E4A926942F001022C4B9A614B
:100600002C4A083A526822F0E0622A4B083B5A60B2
:100610001A4652680A435A60704730B504460025AE
:10062000FFF791FF2248006840F4803020490860BD
:1006300000BF1F480068400C0028FAD04FF48060CB
:100640001B494860A01EC4B20846406840EA844086
:1006500048600846406840F4803048601A480068A6
:1006600040F03200184908601148006840F080707E
:100670000F49086000BF0E480068400E0028FAD0FD
:100680000B48406840F002000949486005E008480E
:100690004068C0F3870505F00305022DF7D130BD92
:1006A00080FFFF1F08ED00E00000FA0500E400E015
:1006B0000010024008000140000401400000FFF863
:1006C000FFFFF6FE0070004000200240014600BF20
:1006D000704700BFFA4A128802F04002002AF9D09F
:1006E000C2B2F74B1B1D1A807047F649088000BF45
:1006F000F449091F098801F040010029F8D070472A
:100700002DE9F05F05460E4630010AF09BFE81465A
:10071000ED4905FB01F00AF095FE824649460AF0D4
:1007200047FD074638460AF055FE84B220460AF0D7
:1007300089FE834639460AF0CAFF82464FF083415C
:100740000AF0C8FE81460AF045FE80464FF6FF706B
:1007500000EA041404EB080084B2DC48806940F02D
:100760000400DA4988610846806940F48040886165
:10077000D748006820F47F60D549086008460068C3
:1007800040F40B600860D148C06840F48040CF4915
:10079000C8600846C06820F48040C860C948001D91
:1007A0000480001D008842F20C010843C54908314D
:1007B00008800846008840F4807008800846008859
:1007C00040F0200008800223252201210020FFF7AD
:1007D00037FEBDE8F09FBB48001F008800F02000F6
:1007E00000283CD0BB49097851B9BB490978491C5C
:1007F000C9B2B94A11700A2902DD0121B54A117046
:10080000B0490988C8B2B549097869B9B4490978C5
:10081000FE2909D1B3490978FF2905D10121AF4A41
:1008200011700021B04A1170AC49097801290FD12B
:10083000AE49AD4A12788854AB490978491CAA4A96
:10084000117011460978082902D10021A34A1170BC
:10085000A3490978A34A1170A149087000BF00207C
:1008600070479749091D088000BF9549098801F024
:1008700040010029F9D070472DE9F05F05460E468A
:1008800030010AF0DFFD81468F4905FB01F00AF0D7
:10089000D9FD824649460AF08BFC074638460AF0E5
:1008A00099FD84B220460AF0CDFD834639460AF010
:1008B0000EFF82464FF083410AF00CFE81460AF09B
:1008C00089FD80464FF6FF7000EA041404EB08002F
:1008D00084B27E48806940F004007C498861084603
:1008E000C06940F40030C8617948001F006820F4F6
:1008F0007F407749091F08600846006840F40B40B4
:10090000086073480830006840F48060704908311E
:1009100008606E48006940F480206C490861084610
:10092000006920F480200861654808300480001DBB
:10093000008842F20C01084361490C3108800846E6
:10094000008840F4807008800846008840F020004D
:1009500008800223262201210020FFF771FDBDE857
:10096000F09F2DE9FF5F5648008800F02000002826
:100970007ED05348001D00885D4908600846006825
:100980004B2803D101205B4908700AE058480068F1
:10099000492803D0564800684A2802D1002055490A
:1009A00008705548007800284DD152480078D0B9D9
:1009B0004F480068412809DB4D480068482805DC9D
:1009C0004B48007840384D4908703CE04848006882
:1009D000082804DC464800784849087033E00020C5
:1009E000464908702FE04348007801282BD1404841
:1009F0000068432806D10020414908700120414980
:100A000008700FE03A480068472806D101203C49A9
:100A1000087000203B49087004E000203849087045
:100A20003849087032480068412803D030480068CF
:100A3000452805D12E48007840383049087002E03A
:100A400000202E4908702A4800687B2802D1012026
:100A50002D490870264800687D2802D102202A49C5
:100A600008702948007801280CD12148007800E05E
:100A70008AE02649264A1278885425480078401C86
:100A8000234908702048007802287DD11F48C0788B
:100A9000502803D101201F490870B3E01B48C078DB
:100AA000572803D101201C490870ABE01748407853
:100AB00023286AD0164800781849087068E00000BA
:100AC000004400400438014040420F000010024042
:100AD0000408014078000020EB0000207A0000208C
:100AE000E9000020EA000020E80000206F0000205C
:100AF000E40000208D00002066000020020000209D
:100B00000000002001000020EC000020580200201E
:100B1000ED0000207B0000207C000020EE00002083
:100B2000A6490978A64A1278881A09F030FF80464B
:100B300042460B460020A34908F026FF04460D4616
:100B40009F490978491EA04A515CA1F1300009F083
:100B50001EFF064622462B4609F080FF82468B4642
:100B60009A4800680AF08AFA52465B46CDE90001CD
:100B700009F08EFCCDE9020109F058FC93490860A8
:100B80008F480078401E01E049E03BE08C49087046
:100B90008B4800780428C3DA8B484078303809281D
:100BA0002FD2DFE800F0050C13181D22272C2D0092
:100BB000864800680AF0F2FB8549086021E0834816
:100BC00000680AF0EBFB834908601AE07F48006880
:100BD0008149086015E07D4800688049086010E0A0
:100BE0007A4800687E4908600BE0784800687D49D3
:100BF000086006E0754800687B49086001E000E095
:100C000000BF00BF0020794908706C4908706C492A
:100C100008706E49086032216B4807F08FFE002093
:100C200004B0BDE8F09F72480078F8B171480068E0
:100C30005A281BD000206E4A10706E4800680128A8
:100C400006DB6C480068082802DC6A4801780BE083
:100C500068480068412807DB66480068482803DCCC
:100C6000644800784038C1B208467047614800685F
:100C70005A2802D101205E4A10700020F5E72DE9C4
:100C8000F0415D480068002801DD002506E05A4873
:100C90000068002801DA022500E0012557480068B5
:100CA000002801DD002606E054480068002801DA2B
:100CB000022600E0012652480068002801DD0027D6
:100CC00006E04F480068002801DA022700E001270B
:100CD0004C48008800F5004084B2FF20FFF705FD76
:100CE000FE20FFF702FD44490A68002A01DB114695
:100CF00000E05142C8B2FFF7F8FC2846FFF7F5FCC8
:100D00003E490A68002A01DB114600E05142C8B2A0
:100D1000FFF7EBFC3046FFF7E8FC39490A68002A88
:100D200001DB114600E05142C8B2FFF7DEFC384655
:100D3000FFF7DBFC2012FFF7D8FCE0B2FFF7D5FC91
:100D4000FF2002F015F8FE2002F012F82A49D1F82F
:100D50000080B8F1000F01DB414601E0C8F100015D
:100D6000C8B202F005F8284602F002F82349D1F88B
:100D70000080B8F1000F01DB414601E0C8F100013D
:100D8000C8B201F0F5FF304601F0F2FF1C49D1F87E
:100D90000080B8F1000F01DB414601E0C8F100011D
:100DA000C8B201F0E5FF384601F0E2FF201201F081
:100DB000DFFFE0B201F0DCFFBDE8F081ED000020D4
:100DC000EE0000200000244058020020F000002027
:100DD000BC000020C0000020A8000020AC000020C3
:100DE000B0000020B4000020B8000020EC0000207B
:100DF000F4000020E4000020080000200C00002087
:100E000010000020D80000201748806940F008003A
:100E1000154988611548006820F47000134908607E
:100E20000846006840F44010086010480830006828
:100E300040F400500D4908310860704718B900218E
:100E40000B4A11600FE00B490968491C094A1160FF
:100E5000814208D106490968C943074AC2F8B4115A
:100E60000021044A1160704700100240040C014048
:100E7000B4812142F8000020008021425948806955
:100E800040F00800574988615748006857490840B2
:100E900055490860084600685549084352490860AA
:100EA00051480830006840F480504F4908310860CC
:100EB0000846006840F480400860704701464D488D
:100EC000006828B94C480088401C4B4A108002E05A
:100ED0000020494A10804748006828B947480078F0
:100EE00010B90120454A107045480078B0B9434810
:100EF0000078012807D143480078401C414A10700F
:100F000001203F4A10703F480078022806D1002097
:100F10003C4A10703C4A10800220704735480068F7
:100F2000012804D10020354A1070354A1070354828
:100F3000007801281CD134480088401C324A1080B7
:100F40001046008888420ADD2B480088884206DA6D
:100F500000202C4A10702C4A10800120DDE7264822
:100F60000088884204DD0020264A1070264A10803E
:100F70000020D2E72548007838B11E48006820B923
:100F8000002022490870012070471A480068012893
:100F900001D11E4908700020F6E71D48008840B9BD
:100FA0001448006828B91B480088401C194908806B
:100FB00002E000201749088016480088C82807DD8D
:100FC0000120134908800020124908800120704741
:100FD0000F480088012802D100200D490880002018
:100FE000F5E7000000100240040C0140FFFFF0F0A4
:100FF000000008083881214202010020FC00002086
:10100000FD000020FE00002000010020040100205F
:10101000080100200601002010B50A461AB101237C
:10102000FE4C236002E00023FC4C2360002116E00C
:101030000023FA4C3434236000F080031BB10123F9
:10104000241D236003E00023F44C38342360012383
:10105000F24C343423604306180E4B1CD9B20829D5
:10106000E6DB0123ED4C236010BD30B500241CE00D
:1010700004F1B001C8B20021FFF7CEFF00210846FD
:10108000FFF7CAFF00211020FFF7C6FF002508E088
:10109000E34901EBC501085D0121FFF7BDFF681CB5
:1010A000C5B2802DF4DB601CC4B2082CE0DB30BD7F
:1010B00000B500218D20FFF7AFFF00211420FFF7BE
:1010C000ABFF0021AF20FFF7A7FF00BD00B5002157
:1010D0008D20FFF7A1FF00211020FFF79DFF0021C9
:1010E000AE20FFF799FF00BD30B500240CE00025CD
:1010F00006E00020CA4901EBC5010855681CC5B2CD
:10110000802DF6DB601CC4B2082CF0DBFFF7ADFFCE
:1011100030BDF0B5144600267F2801DC3F2900DDF4
:10112000F0BD0B46CF1701EB5777FF10C7F107074C
:10113000FAB2CF1701EB5777FF10A1EBC707FDB24B
:10114000C5F107070123BB40DEB24CB1B44B03EB42
:10115000C0039B5C3343B24F07EBC007BB5408E0AE
:10116000AF4B03EBC0039B5CB343AD4F07EBC00732
:10117000BB5400BFD4E72DE9F04F80460C4615461E
:101180001E46A346A5F12000C5B200273EE00C2E66
:1011900007D105EB4500A34901EB800010F807904B
:1011A00004E0A14800EB051010F807904FF0000A8A
:1011B00026E009F0800028B121464046099AFFF751
:1011C000A8FF09E0099808B9012000E000200246C4
:1011D00021464046FFF79DFF4FEA49604FEA1069FC
:1011E000601CC4B2A4EB0B00B04205D15C4608F110
:1011F000010000F0FF0806E00AF1010000F0FF0A1C
:10120000BAF1080FD5DB00BF781CC7B2B742BEDB0E
:10121000BDE8F08F10B50246012000E050430B00FE
:10122000A1F10104E1B2F9D110BD2DE9FF4F81B068
:10123000074691461E460E9D4FF0000A002439E0F5
:10124000301B401EC1B20A20FFF7E4FFB9FBF0F0EB
:101250000A21B0FBF1F201FB1208BAF1000F16D11E
:10126000701EA04213DDB8F1000F0ED10120AB4675
:1012700005EBDB71491001FB04710090C8B22B46ED
:1012800020220299FFF777FF12E04FF0010A0120B8
:10129000AB4605EBDB71491001FB04710090C8B24D
:1012A00008F13001CAB22B460299FFF764FF00BF74
:1012B000601CC4B2B442C3DB05B0BDE8F08F78B5A2
:1012C00005460E46144618E07A2D03DD002506F18A
:1012D0001000C6B23A2E04DD002005460646FFF790
:1012E00003FF0120009022780C2331462846FFF7A7
:1012F00042FF05F10800C5B2641C20780028E3D144
:1013000078BD10B54948806940F0100047498861B0
:101310000846806940F00100886145484068C0F394
:101320001300434948600846406842490843404921
:1013300048600846006820F00F0008600846006812
:1013400040F0020008603C48006840F480703A4970
:1013500008603648006A20F00100344908623748C6
:10136000008820F00100354908803348006820F4E7
:10137000807031490860002028493C3108606420B1
:10138000FFF726F801202E49C1F8BC010021AE204C
:10139000FFF742FE0021D520FFF73EFE002150203E
:1013A000FFF73AFE0021A820FFF736FE00213F207C
:1013B000FFF732FE0021D320FFF72EFE0021084662
:1013C000FFF72AFE00214020FFF726FE00218D2096
:1013D000FFF722FE00211420FFF71EFE002120202F
:1013E000FFF71AFE00210220FFF716FE0021A120C0
:1013F000FFF712FE0021C020FFF70EFE0021DA20C9
:10140000FFF70AFE00211220FFF706FE00218120CF
:10141000FFF702FE0021EF2014E0000080012242CD
:101420008A020020BEB8000832BD00080010024049
:10143000001001400000202200700040306C00408D
:1014400000002242FFF7E8FD0021D920FFF7E4FD6C
:101450000021F120FFF7E0FD0021DB20FFF7DCFD9C
:1014600000213020FFF7D8FD0021A420FFF7D4FD94
:101470000021A620FFF7D0FD0021AF20FFF7CCFD13
:10148000FFF732FE10BD00006D48806940F0040097
:101490006B4988616B48006820F4700069490860F6
:1014A0006748806940F40070654988610846C068F3
:1014B00040F40070C8600846C06820F40070C8603E
:1014C0000846406820F4404048600846406840F4C0
:1014D000004048605C4800685C4908405A49086020
:1014E0000846006808600846006820F480700860BC
:1014F000081D006820F00200091D08600846006809
:1015000020F4602008600846006840F4602008600D
:101510000846006840F4801008600846006820F41F
:101520000060086048482830006820F47000464990
:1015300028310860084600680020086042480C30E6
:10154000006820F4700040490C31086008460068CB
:1015500040F4603008603C48001D006840F0010025
:101560003949091D08600846006840F00800086015
:1015700000BF3548001D006800F008000028F8D1C1
:101580003148001D006840F004002F49091D086023
:1015900000BF2D48001D006800F004000028F8D1AD
:1015A0007047014628483030006820F01F00264A66
:1015B0003032106010460068084310602248001D59
:1015C000006840F48000204A121D106000BF1E48D1
:1015D000001F006800F002000028F8D01A484830C8
:1015E000006880B270472DE9F04F87B00520FFF703
:1015F000D8FF019009F0E2F980464FF06632144BB3
:1016000009F02CFA0022134BCDE9020109F026FA69
:101610000022114BCDE9040109F020FA0646002210
:101620000E4B08F0F1FF044600220D4B08F0ECFFD2
:10163000824609F07DF90690069807B0BDE8F08F64
:10164000001002400008014004240140FFFFF000A8
:1016500066660A4000002640000059400000F03F46
:101660000000B0408248806940F0040080498861F1
:101670000846806940F0080088610846806940F0AB
:10168000100088610846806940F020008861794830
:10169000006820F47020774908600846006840F42C
:1016A000002008607448006800F0FF20724908605C
:1016B0000846006840F0221008606F480C3000684F
:1016C0006D490C31086008460068086008460068EB
:1016D00008600846006808606848006820F47F00D9
:1016E000664908600846006840F40810086008462B
:1016F000406820F4702048600846406840F400309C
:1017000048600846C068C8600846C068C8600846A7
:10171000C068C8605A48006820F470605849086082
:101720000846006840F40070086055480C300068B6
:1017300053490C3108600020524908605249C1F8F1
:10174000880150491C390860091F08604F4908602A
:10175000091F08604D49103908604D49C1F88001E2
:10176000704700B503460A46FFF77CFF4048806992
:1017700040F400503E4988610846806940F01000FE
:1017800088613E48406820F0FF003C4948600846B8
:10179000406840F0BB0048600846006820F07F4089
:1017A00008600846006840F03B4008603948038004
:1017B000001F028037481438008840F06000354927
:1017C000143908800846008840F4C0400880081D8D
:1017D000008840F06000091D08800846008840F439
:1017E000C0400880081F008840F00800091F0880DA
:1017F0000846008840F400600880081D008840F01A
:101800000800091D08800846008840F40060088030
:10181000081D008840F00100091D08800846008866
:1018200040F0100008800846008840F4807008806E
:101830000846008840F4805008800020154908318F
:101840000880091D0880091D0880091D0880081DE1
:10185000008840F40040091D08804FF400400D4905
:101860002C3908800846008840F00100088000BD3F
:101870000010024004080140000C0140001001402B
:1018800000140140B0012242008022429481214292
:10189000008021422C34014010B5FA48406840F4E1
:1018A0008070F8494860F848C06940F00100F64986
:1018B000C8610846806940F0040088610846806974
:1018C00040F008008861F148006820F07040EF495E
:1018D00008600846006840F080400860EC480068F6
:1018E00020F47040EA4908600846006840F48040EF
:1018F00008604FF08040808940F001004FF0804147
:1019000088810846808940F04000888101231C229C
:1019100003211846FEF794FD00204FF08041088512
:101920004FF6FF7088850846008820F440700880D4
:101930000846008820F0600008800846008B40F0D0
:10194000010008830846008B40F480700883084635
:10195000008C20F0020008840846008C20F0200053
:1019600008840846008940F0030008810846008882
:1019700040F00100088010BD10B5C348C06940F0B8
:101980000200C149C8610846806940F008008861CA
:10199000BE48001F006820F07F40BC49091F086056
:1019A0000846006840F088400860BA48008840F067
:1019B0000100B84908800846008840F040000880CF
:1019C00001231D2203211846FEF73AFD0020B149EC
:1019D0001C3108804FF6FF70091D0880AD480C3897
:1019E000008820F44070AB490C3908800846008814
:1019F00020F060000880A7480C30008840F001000B
:101A0000A4490C3108800846008840F480700880A2
:101A1000A0481430008820F002009E49143108804C
:101A20000846008820F0200008809A48001F00889F
:101A300040F003009749091F088096480C38008839
:101A400040F0010093490C39088010BD10B58E4854
:101A5000C06940F004008C49C8610846806940F0C4
:101A6000080088618A48006820F07F408849086043
:101A70000846006840F0884008608748008840F0C9
:101A80000100854908800846008840F04000088031
:101A900001231E2203211846FEF7D2FC00207E49B6
:101AA0001C3108804FF6FF70091D08807A480C38F9
:101AB000008820F4407078490C3908800846008876
:101AC00020F06000088074480C30008840F001006D
:101AD00071490C3108800846008840F48070088005
:101AE0006D481430008820F002006B4914310880E2
:101AF0000846008820F0200008806748001F008802
:101B000040F003006449091F088063480C380088CE
:101B100040F0010060490C39088010BD10B55A48EA
:101B2000C06940F008005849C8610846806940F023
:101B3000040088615548001F006820F0FF005349E9
:101B4000091F08600846006840F044000860C804A7
:101B5000808940F00100C90488810846808940F0EE
:101B6000400088810123322203211846FEF768FCD9
:101B700000204A4908804FF6FF70091D0880474839
:101B80002838008820F440704449283908800846E5
:101B9000008820F06000088040481038008840F03D
:101BA00001003E49103908800846008840F48070E2
:101BB00008803A480838008820F002003749083980
:101BC00008800846008820F020000880334820382C
:101BD000008840F003003149203908802F48283818
:101BE000008840F001002D492839088010BD0146C9
:101BF000022906D003290DD0042914D0052924D1A7
:101C00001AE04FF08042928C10B200224FF08043D5
:101C10009A841CE01F4A1832128810B200221D4B11
:101C200018331A8013E01C4A1832128810B20022AE
:101C3000194B18331A800AE0184A121F128810B282
:101C40000022164B1B1F1A8001E0002000BF00BFBE
:101C500070474FF08040008A4FF08040008A20F0AB
:101C600001004FF08041088270470A48001D00883B
:101C70000848001D008820F001000649091D088061
:101C800070470000000001400010024004080140BD
:101C9000000C01400C0400400C080040280C0040DF
:101CA000084800880748008820F00100054908809E
:101CB0007047054800880448008820F00100024968
:101CC0000880704710080040100C0040F7488069F9
:101CD00040F00800F5498861F548006820F47F402D
:101CE000F34908600846006840F44C5008607047AB
:101CF00010B5EF48006820F47040ED4908600846D0
:101D0000006840F4405008600120EA490860EA4851
:101D1000D0F82C0108B9002010BD0120E549091FA9
:101D20000860FEF739FB0020E349C1F8AC01E14847
:101D30008038006808B10020EEE70120FEF72CFB98
:101D40000020DC49091F08600120E5E710B5D848EC
:101D5000006820F47040D64908600846006840F4E6
:101D6000405008600020D349091F0860D249C1F8DB
:101D7000AC010120FEF710FB0120CE49091F0860CD
:101D8000CD49C1F8AC01FEF707FB10BD10B500242A
:101D9000C748006820F47040C549086008460068DC
:101DA00040F4004008600120C2490860FEF7F4FAE0
:101DB0000120C149C1F8A801FEF7EEFA0AE0601C53
:101DC000C4B2322C03DDFFF7C1FF002010BD01209B
:101DD000FEF7E2FAB748803800680028EFD1B5492D
:101DE000091F08600120F1E710B50020B149091F63
:101DF0000860AF48006820F47040AD4908600846AC
:101E0000006840F4405008600020AB49C1F8AC01C4
:101E10000120FEF7C1FA0120A649091F0860FEF75C
:101E2000BBFA0020A449C1F8A80110BD10B50020DC
:101E3000A049091F08609E48006820F470409C4932
:101E400008600846006840F44050086001209A4944
:101E5000C1F8AC01FEF7A0FA01209649091F0860FD
:101E6000FEF79AFA00209449C1F8A80110BD70B598
:101E700004468F48006820F470408D490860084689
:101E8000006840F44050086000208A49091F08603B
:101E9000002516E0E009874908606006040E01206D
:101EA000FEF77AFA01208449C1F8A801FEF774FA16
:101EB00000208049091F08600120FEF76DFA681CA8
:101EC000C5B2082DE6DB70BD2DE9F04105460E4692
:101ED00017469846FFF70CFF10B90120BDE8F081C6
:101EE0006906080EFFF7C3FFFFF750FF18B9FFF7A9
:101EF0002DFF0120F2E73046FFF7B9FFFFF746FF5D
:101F000000240BE018F80400FFF7B1FFFFF73EFFD5
:101F100018B9FFF71BFF0020E0E7641CBC42F1DBAF
:101F2000FFF714FF0020D9E770B50546002460488C
:101F3000006820F470405E4908600846006840F47C
:101F400000400860002617E000205A49091F086079
:101F50000220FEF721FA01205749C1F8A8016006C6
:101F6000040E54488038006808B1601CC4B20220D6
:101F7000FEF712FA701CC6B2082EE5DB15B1FFF7AA
:101F800033FF01E0FFF752FF204670BD2DE9F0411D
:101F900006460F4614461D46FFF7AAFE10B901205B
:101FA000BDE8F0817106080EFFF761FFFFF7EEFE56
:101FB00018B9FFF7CBFE0120F2E73846FFF757FFCD
:101FC000FFF7E4FEFFF794FE012101EB4601C8B2E2
:101FD000FFF74DFFFFF7DAFE0DE0012C04D10020E2
:101FE000FFF7A2FF287003E00120FFF79DFF287094
:101FF0006D1C601EC4B2002CEFD1FFF7A7FE0020BD
:10200000CEE770B505460E460024FFF771FE284660
:10201000FFF72DFF641CFFF7B9FE3046FFF727FFDF
:10202000641CFFF7B3FEFFF763FE691CC8B2FFF73D
:102030001EFF641CFFF7AAFE0020FFF775FF044691
:10204000FFF784FE204670BD2DE9F0410746884623
:1020500015461E460024FFF74BFE3846FFF707FFE4
:10206000FFF794FE4046FFF702FFFFF78FFEFFF7F2
:102070003FFE791CC8B2FFF7FAFEFFF787FE00BFEC
:102080000DE0681EA04204D00120FFF74DFF30553F
:1020900003E00020FFF748FF3055601CC4B2AC429B
:1020A000EFDBFFF753FE2046BDE8F0810010024051
:1020B000040C0140AC812142008021422DE9F04115
:1020C00080460D4616461F460024FFF711FE404687
:1020D000FFF7CDFEFFF75AFE2846FFF7C8FEFFF7D1
:1020E00055FE00BF06E0385DFFF7C1FEFFF74EFE6C
:1020F000601CC4B2B442F6DBFFF728FE0120BDE845
:10210000F08170B505460E46144631462846FFF765
:1021100078FF2070012070BD37B504460D4602AB34
:10212000012229462046FFF7C9FF3EBD2DE9F843AD
:102130000746884614461D46089E6A46414638466C
:10214000FFF7DFFF28B3601CFF2101FA00F0C4F1A4
:1021500008012944491EFF220A41104300F0FF09EB
:10216000C5F1080006FA00F0C6B2C4F10700064146
:102170009DF8000000EA090000909DF8000030433F
:1021800000909DF8002041463846FFF7C5FFBDE8A6
:10219000F8830020FBE7F8B506460F4614461D46B7
:1021A0006A4639463046FFF7ACFF2DB10120A0400A
:1021B0009DF80010084305E00120A0409DF80010A4
:1021C00021EA0000C0B200909DF800203946304658
:1021D000FFF7A2FFF8BD000010B51248806940F07B
:1021E0000800104988611048006820F070400E49CE
:1021F00008600846006840F0004008600A4808305F
:10220000006840F4004008490831086001220F21AD
:102210001046FEF74FF90223282201211846FEF747
:102220000FF910BD00100240040C01402DE9F047E9
:1022300004460D4616461F46DDF820904FF0000874
:1022400014B10DB106B117B90120BDE8F087601EC9
:10225000C4B2681EC5B2701EC6B2781E87B2FE48F0
:10226000806940F00100FC4988610846806940F0BF
:10227000080088610846C06940F00070C861F748EE
:10228000006820F0FF00F54908600846006840F04B
:10229000B8000860F1480830006840F44070EF4929
:1022A00008310860EE48406840F48040EC494860DE
:1022B0000020EC4908600846006840F00100086012
:1022C00008E008F101001FFA80F8B8F1640F01DDA1
:1022D0000220BAE7E348001D006800F00100002872
:1022E000EFD0E0480068DF490860084600680860F1
:1022F0000846006808600846006840F01000086062
:102300000846006808600846006808600020D54953
:102310001C3108600846006840EA89700860084679
:10232000006840EA046008600846006840EA05501A
:1023300008600846006840EA0640086008460068F1
:1023400038430860C748006820F00100C5490860AC
:1023500009E008F101001FFA80F84FF6F07080459F
:1023600001DD032071E7BF48001D006800F0010097
:102370000028EED1BC48006840F00100BA4908606E
:10238000B9481C30006820F00100B7491C310860D2
:10239000B5480C30006840F00100B3490C310860CA
:1023A000B148001D0068B049091D0860AE481430EE
:1023B0000068AD49143108600020AB494031086025
:1023C0000021A94844300160A7481C30006840F053
:1023D0000100A5491C310860A34800680020A249FB
:1023E0000860A0481430006840F002009D49143194
:1023F00008600223142200210120FEF721F80020AA
:1024000023E7F0B505460E46059C9648083000685F
:1024100000F0806008B1002111E0924808300068A7
:1024200000F0006008B1012109E08E480830006822
:1024300000F0805008B1022101E0FF20F0BD00272C
:102440008948803800EB011007601EB9C5F30A0502
:102450006D0502E025F06045ED008348803800EB13
:10246000011000682843804F803F07EB0117386058
:102470007D48803800EB0110006840EA86077A4802
:10248000803800EB011007607748803800EB0110BE
:10249000006840EA42077448803800EB011007608A
:1024A00003F00F037048803800EB0110406820F003
:1024B0000F076D48803800EB011047606A4880388C
:1024C00000EB011040681843674F803F07EB01178E
:1024D0007860E0790006A77940EA0740677940EA2A
:1024E0000727207907436048803800EB0110C76058
:1024F000E0780006A77840EA0740677840EA0720BE
:1025000027783843584F803F07EB0117B86056488B
:10251000803800EB0110006840F001075248803815
:1025200000EB01100760084688E70146002021B152
:10253000012916D002293CD127E04A4A0832126804
:1025400002F001021043474A0832126802F0020208
:102550001043444A0832126802F0806240EA126076
:1025600029E0404A0832126802F0010210433D4A55
:102570000832126802F0020210433A4A0832126826
:1025800002F0006240EA526015E0364A08321268F2
:1025900002F001021043334A0832126802F00202CC
:1025A0001043304A0832126802F0805240EA9260CA
:1025B00001E0052000BF00BF7047014629B9294846
:1025C0000C30006800F003007047012905D1254850
:1025D0001030006800F00300F6E70020F4E7F0B5E3
:1025E000DDE90554204E503E06EB0016366806F035
:1025F0000406167016783EB91B4E503E06EB0016C8
:102600003668760D0E6006E0174E503E06EB00165B
:102610003668F6080E60144E503E06EB001636681B
:1026200006F002061E70104E503E06EB001676684D
:1026300006F00F062E700C4E503E06EB0016B668E4
:102640002670094E503E06EB0016B668360A6670D4
:10265000054E503E0AE0000000100240040C01400C
:1026600000000140006400400066004006EB0016D8
:10267000B668360CA670C94E06EB0016B668360E64
:10268000E670C64E06EB0016F6682671C34E06EBE2
:102690000016F668360A6671C04E06EB0016F6683C
:1026A000360CA671BD4E06EB0016F668360EE671C6
:1026B00030B9BB4E366846F02006B94F3E6009E09F
:1026C000012807D1B64E361D366846F02006B44FB5
:1026D0003F1D3E60F0BD10B58AB0B2A103C9CDE97F
:1026E000040102A806A907AB08AACDE9001009A9B0
:1026F0000020FFF774FF00240FE0072C04D102A88C
:10270000005DAA4908700AE002A8005D04A9095DFD
:10271000884200D003E0601CC4B2072CEDDD00BF8E
:1027200040F221110998884207D1A048007820B1D1
:102730009F4802990160039941600AB010BDF8B545
:1027400005460E46002433460022114640F2016041
:102750000095FFF756FE074601E0601C84B238463C
:10276000FFF7E3FE072803D040F6FF708442F4DB56
:1027700040F6FF70844201DB0120F8BD0020FCE739
:1027800010B586B004460020FFF717FF10B90020EF
:1027900006B010BD02A803AB04AA05A9CDE9000448
:1027A0000020FFF71CFF0598122805D19DF81000A6
:1027B00010B99DF80C0008B1002002909DF80800A7
:1027C000E6E7F8B505460E460024334600221146DA
:1027D00040F201700095FFF714FE074601E0601C0F
:1027E00084B23846FFF7A1FE072803D040F6FF70F9
:1027F0008442F4DB40F6FF70844201DB0120F8BD27
:102800000020FCE7F8B506460D4600240823002208
:10281000114630460095FFF7F4FD074601E0601CC5
:1028200084B23846FFF781FE072803D040F6FF70D8
:102830008442F4DB40F6FF70844201DB0120F8BDE6
:102840000020FCE72DE9F84F5A480068002801DD18
:10285000002406E057480068002801DA022400E05E
:10286000012455480068002801DD002506E0524893
:102870000068002801DA022500E001254F480068C1
:10288000002801DD002606E04C480068002801DA37
:10289000022600E001264A494A48006808F01AFE6C
:1028A0004949009008F016FC834608F093FD87B272
:1028B00043494648006808F00DFE4349009008F07F
:1028C00009FC834608F086FD1FFA80F83C49404821
:1028D000006808F0FFFD3C49009008F0FBFB8346D0
:1028E00008F078FD1FFA80F93A48808800F500402A
:1028F0001FFA80FA3848007808B9012000E000206B
:102900003549087008460078B8B93812334908705C
:102910004F704FEA2820887081F803804FEA292001
:10292000087181F805904FEA2A20887181F807A084
:102930004FF48070FFF766FF2DE01E4908680028FD
:1029400001DB014600E04142244A11701046447008
:1029500019490868002801DB014600E041421F4A8E
:1029600091701046C57015490868002801DB0146C2
:1029700000E04142194A117110464671184800683A
:102980000A2190FBF1F011468871C820C87140F20D
:102990000110FFF737FFBDE8F88F0000B065004079
:1029A0000C6400400A0C0F13181E2500770000204D
:1029B00067000020080000200C000020100000200C
:1029C0000000C842900000200060EA469400002009
:1029D00098000020F40100200A0100207D00002062
:1029E0005C000020D048D1494860D1484860704719
:1029F000CE48006940F08000CC4908617047CB4860
:102A0000C16801F0010008B10120704701F0040025
:102A100008B10220F9E701F0100008B10320F4E743
:102A20000020F2E770B5044600BFFFF7E8FF054657
:102A3000012D00D006E00120FDF7AEFC601E84B23F
:102A4000002CF2D100BF04B9FF25284670BD70B537
:102A50000546002445F6FF70FFF7E4FF0446C4B9BD
:102A6000B248006940F00200B0490861084645617B
:102A7000006940F04000086145F6FF70FFF7D2FFA3
:102A80000446012C05D0A948006920F00200A7499E
:102A90000861204670BD70B505460E46FF20FFF761
:102AA000C1FF044694B9A148006940F001009F4964
:102AB00008612E80FF20FFF7B5FF0446012C05D0EA
:102AC0009A48006920F0010098490861204670BDCD
:102AD0000146088870472DE9F04105460E46174625
:102AE000002407E036F814102846FFF7D4FFAD1C89
:102AF000601C84B2BC42F5DBBDE8F08130B5034612
:102B00000C461546002207E01846FFF7E1FF24F8BF
:102B100012009B1C501C82B2AA42F5DB30BD2DE98D
:102B2000F05F80468A461746B8F1006F02D38148AD
:102B3000804501D3BDE8F09FFFF754FFA8F1006B7B
:102B40004FEA9B25CBF34809C9F50074A74200DC86
:102B50003C464EE04FF0006101EB85208A14764937
:102B6000FFF7CCFF00260BE009EB0600724931F8B5
:102B700010004FF6FF71884200D003E0701C86B24F
:102B8000A642F1DB00BFA6421BDA4FF0006101EB69
:102B90008520FFF75CFF002608E03AF8160006EBF8
:102BA0000901654A22F81100701C86B2A642F4DBC6
:102BB0004FF0006101EB85208A145F49FFF78BFF1E
:102BC00004E0224651464046FFF785FFA74200D168
:102BD00010E06D1C4FF000090AEB440A08EB4408B2
:102BE000381B87B2B7F5007F02DD4FF4007400E0B8
:102BF0003C46AFE700BFFFF7FBFE00BF9AE713B507
:102C00000446012201A92046FFF789FF1CBD10B52B
:102C10000A224A494A48FFF771FF484800884FF6A0
:102C2000FF7188422DD145484088884229D14348C8
:102C30008088884225D14148C088884221D13F48B8
:102C4000008988421DD13D484089884219D13B48BE
:102C50008089884215D11E203A49086040F6B83074
:102C60003949086039483A49086000203949086004
:102C700039483A4908603A483A4908603A49086090
:102C800025E02E4800882F4908602C4840882E49AE
:102C900008602A49888808F0D5FB2D490860274933
:102CA000C88808F0CFFB2B4908602449088908F040
:102CB000C9FB2A4908602149488908F0C3FB294912
:102CC00008601E49888908F0BDFB2749086010BDCF
:102CD00010B51C480088254908801B48008848809A
:102CE0001B48006808F076FB204988801948006876
:102CF00008F070FB1D49C8801848006808F06AFB9E
:102D00001A4908811748006808F064FB1749488190
:102D10001548006808F05EFB144988810A220848BB
:102D2000FFF7FDFE10BD00002301674500200240B3
:102D3000AB89EFCD000001088A0600203002002098
:102D400000E00008BC000020C00000200000A041FE
:102D5000A8000020AC00002000004843B000002084
:102D600000004041B4000020B800002044020020D0
:102D70006849088000BF6749091F098801F04001C0
:102D80000029F8D070472DE9F05F05460E46300166
:102D900008F058FB8146604905FB01F008F052FB42
:102DA0008246494608F004FA0746384608F012FB06
:102DB00084B2204608F046FB8346394608F087FC7B
:102DC00082464FF0834108F085FB814608F002FB04
:102DD00080464FF6FF7000EA041404EB080084B24A
:102DE0004E48806940F001004C498861084680697E
:102DF00040F0100088610846C06940F48020C86136
:102E00004748406820F47F4045494860084640688C
:102E100040F40B4048600846C06840F48060C860D9
:102E20004048406840F010003E4948603B48006917
:102E300040F48020394908610846006920F4802068
:102E400008613448001D0480001D008842F20C0116
:102E500008433049083108800846008840F48070F3
:102E600008800846008840F02000088002232722BE
:102E700001210020FDF7E4FABDE8F09F10B52548D8
:102E8000001F008800F02000002841D0264800786C
:102E900050B926480078401CC0B2244908700A285E
:102EA00002DD0120204908701A480088C4B220467B
:102EB00008F0C8FA1E4908601E48007868B91E4824
:102EC0000078FE2809D11D480078FF2805D101208F
:102ED0001849087000201A4908701648007801281F
:102EE0000FD1184816490978445415480078401CF9
:102EF0001349087008460078082802D100200D49BF
:102F000008700D4800780D4908700B48047000BF28
:102F1000002010BD0448004040420F000010024055
:102F20000010014000000140780000200E01002048
:102F3000600000207A0000200C0100200D0100201C
:102F40000B0100206F000020FD48806940F0040064
:102F5000FB4988610846806940F010008861F948A3
:102F6000006820F47060F74908600846006840F483
:102F700000600860F248806940F01000F049886104
:102F8000F04800684FF2F0018843EE4908600846B7
:102F9000006843F230010843EA490860EA480068E3
:102FA00020F47020E84908600846006840F440308A
:102FB0000860704738B50446012000900020E349BE
:102FC0004870012000902DE0BDF80000204018B1AD
:102FD0000120DF49086002E00020DD49086001208F
:102FE000DC4908600520FDF7D7F90020DA49C1F86F
:102FF00090010520FDF7D0F90120D749C1F89001D3
:10300000D648D0F8080130B1D0484078BDF800105B
:103010000843CE494870BDF800004FF6FF7101EA41
:1030200040000090BDF80000FF28CDDD1020FDF726
:10303000B3F938BD10B50020C54908310860C8494A
:103040000878FFF7B7FFC6494878FFF7B3FF0120BC
:10305000C249C1F88C01BD484078732801D10020D5
:1030600010BD0120FCE71CB500200190012000905C
:103070000020B74908310860B9490878FFF79AFF7E
:10308000B7494878FFF796FF0220019035E001200C
:10309000009026E00120AF4908600520FDF77CF98B
:1030A0000020AD49C1F890010520FDF775F9012018
:1030B000A949C1F89001A948D0F8080150B1A34826
:1030C0009DF80410405CBDF8001008439F499DF82E
:1030D00004208854BDF800004FF6FF7101EA40005B
:1030E0000090BDF80000FF28D4DD1020FDF754F952
:1030F0009DF80400401CC0B201909DF8040009280E
:10310000C5DB01209249083108601CBD002004E0A5
:1031100000218E4A1154411CC8B20928F8DB7047BF
:1031200010B5FFF7F3FFFFF79EFF8848C078874987
:10313000097940EA01208B49088000240FE08A4881
:1031400010F81400401E012101FA00F08549098899
:10315000084010B9601CC0B210BD601CC4B2102C75
:10316000EDDB0020F8E701467848405C704770B519
:1031700005460C4600207649083108601020FDF70E
:103180000BF90120FFF716FF4220FFF713FF002085
:10319000FFF710FF2846FFF70DFF2046FFF70AFF55
:1031A0000020FFF707FF0020FFF704FF0020FFF7D4
:1031B00001FF0020FFF7FEFE01206849C1F88C01E5
:1031C0001020FDF7E9F870BD10B500206049083106
:1031D00008601020FDF7E0F80120FFF7EBFE422029
:1031E000FFF7E8FE0020FFF7E5FE0020FFF7E2FE14
:1031F0000020FFF7DFFE01205849C1F88C011020A4
:10320000FDF7CAF810BD10B500205149083108601B
:103210001020FDF7C1F80120FFF7CCFE4320FFF797
:10322000C9FE0020FFF7C6FE0120FFF7C3FE002005
:10323000FFF7C0FE0020FFF7BDFE0020FFF7BAFE3B
:103240000020FFF7B7FE0020FFF7B4FE012043493E
:10325000C1F88C011020FDF79FF810BD10B50020BB
:103260003B49083108600120FFF7A4FE4420FFF726
:10327000A1FE0020FFF79EFE0120FFF79BFE03202A
:10328000FFF798FE0020FFF795FE0020FFF792FE63
:103290000020FFF78FFE0020FFF78CFE01202F4952
:1032A000C1F88C011020FDF777F810BD10B5002093
:1032B0002749083108601020FDF76EF80120FFF75C
:1032C00079FE4D20FFF776FE0020FFF773FE002009
:1032D000FFF770FE0120FFF76DFE01201F49C1F8C6
:1032E0008C011020FDF758F810BD10B500201849CA
:1032F000083108601020FDF74FF80120FFF75AFE53
:103300004320FFF757FE0020FFF754FE0020FFF791
:1033100051FE5A20FFF74EFE5A20FFF74BFE5A206F
:10332000FFF748FE5A20FFF745FE5A20FFF742FEFE
:1033300001200A49C1F88C011020FDF72DF810BDBD
:103340000010024000100140000801408A0A0020DD
:1033500084012242900121420000214200002242C9
:1033600012010020100100201401002010B5FFF709
:103370002BFFFFF729FFFFF727FFFFF744FFFFF7BA
:103380006DFFFFF7B2FF10BD10B50E48007898B181
:103390000720FFF7E8FE0C4908600820FFF7E3FE6E
:1033A0000A4908600520FFF7DEFE0949086006208B
:1033B000FFF7D9FE07490860FFF7B2FE064908602B
:1033C00010BD000079000020C4000020C8000020CB
:1033D000CC000020D0000020D40000202DE9F047D0
:1033E00090B0044689469246FE49B1F9040008F0BF
:1033F00011F88046FC480168404608F06BF8064624
:1034000051464FF07E5008F065F88046214607F09F
:1034100061FE0746314607F05DFE054607F0BEFF38
:10342000F2490860EF49B1F9040007F0F3FF0646DE
:10343000ED480168304608F04DF8054607F01EFEDD
:10344000CDE90C0151464FF07E5008F043F8074695
:1034500007F014FE05460E46484607F00FFECDE97C
:1034600002010020E24906F0BBFF00224FF080433A
:10347000CDE9000107F0C8F80746DDE9022307F0AF
:10348000EDFACDE906014FF03F41204608F022F861
:10349000074607F0F3FDCDE90401DDE9062306F058
:1034A000F7FF2A463346CDE9080106F0F1FFCDE9E2
:1034B0000A01DDE90C2306F0EBFFCDE90E0107F070
:1034C00037FACC490860C749B1F9040007F0A2FFF8
:1034D0000646C5480168304607F0FCFF054607F080
:1034E000CDFDCDE90E0151464FF07E5007F0F2FFC1
:1034F000054607F0C3FDCDE90A01484607F0BEFDC9
:10350000CDE902010020BA4906F06AFF0546002213
:103510004FF0804307F078F8CDE90001DDE90223A0
:1035200007F09CFACDE906014FF03F41204607F035
:10353000D1FF054607F0A2FDCDE90401DDE9062330
:1035400007F0B2FCCDE90801DDE90A2306F0A0FF8F
:10355000CDE90C01DDE90E2306F09AFF074607F0DE
:10356000E7F9A549086010B0BDE8F0872DE9F047FC
:103570008CB004468946924651464FF07E5007F083
:10358000A9FF0646214607F0A5FD054607F006FF00
:103590009A49086051464FF07E5007F09BFF054660
:1035A00007F06CFDCDE90801484607F067FD0546C8
:1035B0000E4600208E4906F013FF074600224FF00A
:1035C000804307F021F82A463346CDE9000107F091
:1035D00045FACDE904014FF03F41204607F07AFF5C
:1035E000054607F04BFDCDE90201DDE9042306F0B5
:1035F0004FFFCDE90601DDE9082306F049FFCDE9DB
:103600000A0107F095F97E49086051464FF07E5057
:1036100007F060FF054607F031FDCDE90801484697
:1036200007F02CFDCDE902010020714906F0D8FE1B
:10363000054600224FF0804306F0E6FFCDE9000189
:10364000DDE9022307F00AFA074688464FF03F41BA
:10365000204607F03FFF054607F010FD3A46434677
:10366000CDE9040107F020FCCDE90601DDE90823DE
:1036700006F00EFFCDE90A0107F05AF9614908602A
:103680000CB0BDE8F0870146002901DA484200E0AD
:103690000846704710B504460B46002C07DA012097
:1036A0005949086000205949C1F8B00106E00020DE
:1036B0005549086001205549C1F8B0012046FFF77F
:1036C000E2FF53490880002B08DA01204E49091F08
:1036D000086000204F49C1F8880107E000204A49EE
:1036E000091F086001204B49C1F888011846FFF7FF
:1036F000CAFF4749091F0880002A08DA0120424909
:103700001039086000204149C1F8940107E0002009
:103710003D491039086001203C49C1F89401104628
:10372000FFF7B1FF3A490831088010BD3A490968EE
:103730004242914202DA4142374A116036490968F1
:10374000814201DD344908603449096842429142AE
:1037500002DA4142314A116030490968814201DD93
:103760002E4908602E4909684242914202DA4142DC
:103770002B4A11602A490968814201DD2849086005
:1037800070472DE9F05F04460D46601B254908602F
:103790000846006807F03EFE834623480168584605
:1037A00007F098FE80461F490968204A1268881A67
:1037B00007F030FE83461E480168584607F08AFE2F
:1037C0008146414607F086FC07461A48006807F024
:1037D00021FE8246394607F07DFC064607F0DEFDF5
:1037E000144929E0F4010020440100204C0000208D
:1037F0000000084050000020540000202800002055
:103800002C00002030000020948121420000224240
:1038100038340140008022423C000020400000205B
:10382000440000206C010020B8000020740100203A
:10383000B400002070010020086008460068B0F560
:10384000E15F02DD4FF4E1500860FE48006810F5CA
:10385000E15F02DAFC48FB490860FC480068FC496B
:103860000860F8480068BDE8F09F2DE9F05F044665
:103870000D46601BF74908600846006807F0CAFD5E
:103880008346F5480168584607F024FE8046F14912
:103890000968F24A1268881A07F0BCFD8346F048AE
:1038A0000168584607F016FE8146414607F012FCB3
:1038B0000746EC48006807F0ADFD8246394607F040
:1038C00009FC064607F06AFDE649086008460068FC
:1038D000B0F5E15F02DD4FF4E1500860E1480068B7
:1038E00010F5E15F02DAD848DE490860D94800687F
:1038F000DA490860DB480068BDE8F09F2DE9F05F19
:1039000004460D46601BD84908600846006807F069
:1039100081FD8346D0480168584607F0DBFD8046AC
:10392000D1490968D14A1268881A07F073FD8346A5
:10393000CB480168584607F0CDFD8146414607F067
:10394000C9FB0746CA48006807F064FD824639464D
:1039500007F0C0FB064607F021FDC5490860084690
:103960000068B0F5E15F02DD4FF4E1500860C04847
:10397000006810F5E15F02DAB348BD490860BA4853
:103980000068BA490860BA480068BDE8F09F10B501
:10399000B84B1B684442A34202DA4342B54C236051
:1039A000B44B1B68834201DDB24B1860B24B1B68FD
:1039B0004C42A34202DA4B42AF4C2360AE4B1B6831
:1039C0008B4201DDAC4B1960AC4B1B685442A342E7
:1039D00002DA5342A94C2360A84B1B68934201DDD5
:1039E000A64B1A6010BD2DE9F04F89B0A4480068BD
:1039F00007F044FB8246A3480CC8504607F054FA2F
:103A000004460D46A048006807F038FB82469F48F0
:103A10000CC8504607F048FA06460F469C48006816
:103A200007F02CFB82469B480CC8504607F03CFA36
:103A300080468946002213462046294606F03CFF70
:103A40000DD1002213463046394606F035FF06D127
:103A5000002213464046494606F02EFF27D0424634
:103A60004B464046494606F0F9FF32463B46CDE913
:103A700004013046394606F0F1FF82468B46224665
:103A80002B462046294606F0E9FF52465B46CDE923
:103A9000000106F0FDFCCDE90201DDE9042306F09A
:103AA000F7FCCDE9060106F09BFC7B4A03C200222D
:103AB00013462046294606F0FFFE0DD1002213468C
:103AC0003046394606F0F8FE06D10022134640463D
:103AD000494606F0F1FE12D04046494606F0A6FCE3
:103AE00082463046394606F0A1FC834620462946E8
:103AF00006F09CFC524659460790FFF737FD674891
:103B00000068FFF7C0FD664909684843019006F068
:103B100055FFCDE9020160480CC8029806F074FD1B
:103B2000824606F005FF07905E480068FFF7ABFD90
:103B30005B4909684843019006F040FFCDE9020166
:103B400055480CC8029806F05FFD824606F0F0FE6C
:103B5000069055480068FFF796FD514909684843AB
:103B6000019006F02BFFCDE902014B480CC80298EA
:103B700006F04AFD824606F0DBFE0590DDE90612FE
:103B8000FFF705FF3E48006807F078FA3D4A03C298
:103B90003D48006807F072FA3C4A03C23C4800689E
:103BA00007F06CFA3B4A03C209B0BDE8F08F2DE97B
:103BB000F04704460D46601B07F02CFC3B490860AB
:103BC000084601683A48006807F084FA38490860F6
:103BD00038493748006807F049FD02D23648344971
:103BE000086036493248006807F040FC02D2344889
:103BF0002F490860334801682C48006807F072FDBF
:103C0000804631480168404607F064FC06462F496B
:103C10002F48006807F0CCFA8246254801685046D4
:103C200007F058FC8046214801682A48006807F0E0
:103C300051FC8146414607F04DFA0746314607F0F0
:103C400049FA49E070010020E0E3FFFF6C01002029
:103C50007401002060010020B800002068010020ED
:103C6000B400002064010020540100205C01002009
:103C7000580100203C0000204000002044000020AB
:103C80009C000020A8010020A0000020B00100201E
:103C9000A4000020B8010020C00100203000002056
:103CA000BC0000202C0000202800002098010020EB
:103CB000A00100200050C34700401C460050C3C76D
:103CC00000401CC6A4010020B00000200000C84233
:103CD000AC000020A8000020FB490860FB480068F9
:103CE000FB490860F848006807F058FBBDE8F0871A
:103CF0002DE9F04704460D46601B07F08BFBF549A4
:103D0000086008460168F448006807F0E3F9F249E2
:103D10000860F249F048006807F0A8FC02D2F048B9
:103D2000ED490860EF49EC48006807F09FFB02D2BC
:103D3000ED48E9490860ED480168E648006807F089
:103D4000D1FC8046EA480168404607F0C3FB0646BE
:103D5000E849E948006807F02BFA8246DE48016826
:103D6000504607F0B7FB8046DA480168E348006830
:103D700007F0B0FB8146414607F0ACF907463146F3
:103D800007F0A8F9DE490860D2480068D749086002
:103D9000DB48006807F002FBBDE8F0872DE9F0473B
:103DA00004460D46601B07F035FBD64908600846FF
:103DB0000168D548006807F08DF9D3490860C74904
:103DC000D148006807F052FC02D2C548CE490860CD
:103DD000C449CD48006807F049FB02D2C248CA492D
:103DE0000860CA480168C748006807F07BFC804645
:103DF000BF480168404607F06DFB0646BD49BE4816
:103E0000006807F0D5F98246BF480168504607F0C0
:103E100061FB8046BB480168B848006807F05AFB60
:103E20008146414607F056F90746314607F052F9F8
:103E3000B7490860B3480068B4490860B4480068EE
:103E400007F0ACFABDE8F0872DE9F04F8DB0814660
:103E50004FF07A500B90AF48006807F09FFA044685
:103E600001200A90B9F1000F7DD1AB4800780928F4
:103E70007AD2DFE800F079050FFEFDFCFBFAF900CD
:103E80000020A6490860A6480068A64908600120ED
:103E90000A90BAE1A448007801280AD1B4F5877FD6
:103EA00007DC0A2C05DD9C49087002209E49087039
:103EB00071E09D480078022807D1B42C05DC03206E
:103EC000954908709849087065E09748007803287C
:103ED00008D15A2C06DC05208F490870042092492D
:103EE000087058E004F1B40006F051FD05468F4A11
:103EF0008F4B06F0B3FD00228E4BCDE9040106F096
:103F000083FBCDE9060105F0F1FC82468B4684482F
:103F1000006807F0B3F852465B46CDE9080106F0A9
:103F20009DFD074606F082FA7C49086004F1B40062
:103F300006F02DFD07467D4A7D4B06F08FFD0546B8
:103F400000227C4B06F060FBCDE9040106F0F8F995
:103F5000CDE908017248006807F090F8CDE9060144
:103F6000DDE9082301E0E3E130E106F077FD824678
:103F700006F05CFA6B4908606948006807F07EF853
:103F800007464FF033326C4B06F03EFB054606F019
:103F90004DFA6A490860204606F0F9FC8246634AF9
:103FA000634B06F05BFD0022624BCDE9000106F099
:103FB0002BFBCDE9020106F0C3F905460E46594830
:103FC000006807F05BF807462A46334606F046FDD0
:103FD000CDE90601204606F0DAFC544A544BCDE9FF
:103FE000000106F03BFD07460022524B06F00CFB99
:103FF000054605F07BFC82468B464848006807F082
:104000003DF852465B46CDE9020106F027FDCDE9B9
:104010000401DDE9062306F03BFACDE9080106F0CC
:1040200005FA3E490860204606F0B1FC3F4A404B85
:10403000CDE9000106F012FD054600223D4B06F0D9
:10404000E3FA074606F07CF982468B46334800685F
:1040500007F014F852465B46CDE9020106F0FEFC7B
:10406000CDE90601204605E0A3E096E086E079E090
:1040700070E065E006F08BFC07462C4A2C4B06F0FE
:10408000EDFC824600222B4B06F0BEFACDE9000182
:1040900005F02CFC05460E462248006806F0EEFFAF
:1040A0002A463346CDE9020106F0D8FCCDE90401E9
:1040B000DDE9062306F0F8FECDE9080106F0B6F9C1
:1040C00018490860A1E000009C0100209801002030
:1040D000A401002088010020900100200050C34767
:1040E00000401C460050C3C700401CC6940100207D
:1040F000B00000200000C842AC000020A800002052
:104100008C01002078010020800100208401002023
:104110007C01002098000020020000209C0000206C
:104120004C010020A000002050010020F1D4C85311
:10413000FB210940008066403333F33FA400002098
:10414000FA480068FA4908600020FA49086001202E
:104150000A905AE00020F6490860F64908600120FC
:104160000A9052E00020F2490860F048006880F0B0
:104170000040F049086001200A9046E0EB480068E2
:1041800080F00040EA490860E848006880F000409C
:10419000E849086001200A9037E0E448006880F0B0
:1041A0000040E34908600020E249086001200A90CD
:1041B0002BE0DE48006880F00040DD490860DB4805
:1041C0000068DC49086001200A901EE000200A9087
:1041D000D748006806F052FF0746D74AD74B06F08B
:1041E00013FA054606F022F9D1490860D148006863
:1041F00006F044FF0746D04AD04B06F005FA0546C4
:1042000006F014F9CB49086000BF00BF0A9810BB44
:10421000CB48007801280AD1CA480B99006807F0FA
:1042200061FAC84908600020C749086013E0C74820
:10423000007801280AD1C3480B99006806F04AFFAC
:10424000C04908600020C049086004E00020BD4962
:104250000860BD490860BE480068404207F0DAF8CF
:104260000546B3480168284607F000FA06D2B84868
:104270000068404207F0CEF8AD490860B4480068D5
:1042800007F0C8F80546AA480168284607F0EEF886
:1042900005D2AF48006807F0BDF8A5490860AC48F2
:1042A0000068404207F0B6F80546A2480168284673
:1042B00007F0DCF906D2A6480068404207F0AAF8E9
:1042C0009C490860A248006807F0A4F80546994890
:1042D0000168284607F0CAF805D29D48006807F033
:1042E00099F8944908609A480068404207F092F8AB
:1042F000054694480168284607F0B8F906D2944864
:104300000068404207F086F88E49086090480068CF
:1043100007F080F805468B480168284607F0A6F8A4
:1043200005D28B48006807F075F886490860E1E01F
:10433000B9F1010FFBD1874800780B286FD2DFE875
:1043400000F0D7061632425E6F8B9BB7C7008248DB
:10435000006807F05FF8054676480168284606F0D1
:10436000B9FE7449086001207C490870C1E07A48B0
:10437000006807F04FF805466D480168284606F0CA
:10438000A9FE6B49086002207449087072480068F1
:1043900007F040F8054667480168284606F09AFE8F
:1043A00064490860A5E06C48006807F033F80546EA
:1043B0005F480168284606F08DFE5D4908600320CD
:1043C0006649087095E06448006807F023F80546E0
:1043D00057480168284606F07DFE554908600420CC
:1043E0005E4908705C48006807F014F805465148BB
:1043F0000168284607F06BF94E49086079E0564895
:10440000006807F007F805464A480168284607F0A3
:104410005EF94849086005205049087069E067E086
:104420004D48006806F0F6FF0546414801682846F9
:1044300007F04DF93E490860062048490870464893
:10444000006806F0E7FF05463A480168284607F08D
:104450003EF9384908604CE03F48006806F0DAFF52
:10446000054633480168284607F031F930490860AD
:1044700007203A4908703CE03748006806F0CAFF58
:1044800005462B480168284607F021F928490860AD
:104490000820324908703048006806F0BBFF054626
:1044A00024480168284606F015FE2249086020E0ED
:1044B0002948006806F0AEFF0546224801682846F4
:1044C00007F005F91F49086009202449087010E029
:1044D0002148006806F09EFF05461A4801682846F4
:1044E00006F0F8FD174908600A201C49087000E032
:1044F00000BF00BF134802680E4801680C480068FE
:10450000FEF76CFF0DB0BDE8F08F0146B1F5FA6F14
:1045100002DB134A12683ABB01200022114B1A80B9
:104520001B1F1A800F4B08331A801FE04C0100201C
:104530009C000020A0000020A4703D0AD7A3F03FFB
:1045400000000020A4000020440100200100002001
:10455000BC00002002000020C00000203901002023
:104560003001214238340140FFE7002070472DE937
:10457000F05F1424FE48007800286BD1FD480078D5
:10458000012803D0FC480078012864D1FB48C07999
:1045900000F0040010B94FF0010801E04FF0FF38BF
:1045A000F648C07900F0020010B94FF0010901E0AF
:1045B0004FF0FF39F148C07900F0010010B94FF019
:1045C000010A01E04FF0FF3AEC498A78497802EBA2
:1045D000012101FB08F006F01DFFE9490860E749E9
:1045E0000A79C97802EB012101FB09F006F012FFFC
:1045F000E4490860E1498A79497902EB012101FB2C
:104600000AF006F007FFE0490860DC48007801285E
:104610000AD108460268DB480168D9480068FEF7FD
:10462000DDFE0020D9490860D4480078022862D114
:10463000D348006806F0B2FED5490860D14800684A
:1046400006F0ACFED3490860CF48006806F0A6FE2D
:10465000D14908604FE0D148007801284BD1D048BB
:104660000068A0F18005CF480068A0F18006CE4820
:104670000068A0F180076042854202DDA54200DAB1
:1046800000256042864202DDA64200DA0026604232
:10469000874202DDA74200DA0027C4480068684369
:1046A000C82190FBF1FB584606F0B4FEB4490860FF
:1046B0007042BE4909684843C82190FBF1FB584647
:1046C00006F0A8FEAF4908607842B8490968484337
:1046D000C82190FBF1FB584606F09CFEAA490860F1
:1046E00008460268A7480168A5480068FEF776FEFC
:1046F0000020A6490860BDE8F09F10B56420FCF7D3
:10470000DDFB0446022C07D1A948007808B9012036
:1047100000E00020A649087010BD70B5A5480068EB
:1047200000287CD14FF40040A3490860A3480078DA
:1047300008B9012000E00020A0490870A0480078D6
:1047400001280BD19F480078401CC0B29D490870D9
:104750000A2803D10020087099490870974800780A
:10476000012815D19848007860B98C48007848B97C
:1047700081480078012805D1804894490A68026080
:104780004968416003F0A6F9FFF7B7FF002070BD4C
:104790000220FDF72CFA142190FBF1F08C490860FF
:1047A0008C480068096808448A4908600320FDF7BE
:1047B0001EFA142190FBF1F08749086087480068D1
:1047C00009680844854908600420FDF710FA14219F
:1047D00090FBF1F08249086082480068096808444B
:1047E0008049086003F076F96420FCF727FBFCF7AA
:1047F000FAFE054606F00EFE04467B480168204698
:1048000006F068FC784908604FF07E5177480068F0
:1048100006F060FC754904460860754900E0A5E0B3
:1048200006F088FD0ED172496F48006806F0C0FCA2
:10483000044606F0B3FD6F49086000206A4908602D
:104840006A4908606C480068042807D10120534970
:1048500008700020474908704749087045480078AB
:10486000012807D044480078012803D04B4800783D
:10487000012801D1FFF77BFE5E480068FFF745FE87
:10488000002873D13A48007828BB3A48007848B9E4
:104890003948007830B94148007818B93448007870
:1048A000FFF7D2FA3A48016849480068FFF726F84E
:1048B000524908603748016847480068FEF7D5FF4D
:1048C0004F4908603448016845480068FEF759FFC1
:1048D0004C490860A9E02748007880B9264800784C
:1048E00068B92E48007850B94748007818B9FCF7E5
:1048F0009AF9464908701E480078FFF7A5FA24483F
:10490000016834480068FFF749FA00123B49086023
:104910002048016831480068FFF7EAF90012384979
:1049200008601D4801682F480068FFF740F9001231
:104930003449086011480078022802D0FFF753F884
:1049400005E01A48026801680068FFF720F82B4864
:10495000006841421E480068FEF7D0FF2749086002
:104960002748006841421C48006851E069E00000A7
:1049700066000020770000207800002067000020FB
:104980009C000020A0000020A40000204401002082
:104990004C0000205000002054000020790000202E
:1049A000C4000020C8000020CC000020BC00002073
:1049B000040000203C812142140401403801002001
:1049C00065000020640000207A0000206F000020B5
:1049D00008000020180000200C0000201C0000200F
:1049E0001000002020000020400100203C01002099
:1049F0000000C8425C000020D40000203C000020E1
:104A000040000020440000208D0000200200002013
:104A1000FEF72BFF0C4908600C48006841420C4827
:104A20000068FEF7AEFE0949086041F66410FEF723
:104A30007DFE064802680748016803480068FEF7E3
:104A400029FE0020A3E600004000002044000020D2
:104A5000100000203C00002038B50446FB4890F8C8
:104A60002400C0B114B10220009001E000200090A9
:104A7000F64A1268D17BF54A526810786B460122DB
:104A8000FDF722FA10B14FF0FF3038BD9DF800104D
:104A9000EE48417423E0ED48807A10B94FF0FF30C2
:104AA000F3E724B1E948407C08B10020EDE714B1F8
:104AB0000120009001E000200090E44A1268D17BC0
:104AC000E24A526810786B460122FDF7FDF910B1F9
:104AD0004FF0FF30D9E79DF80010DC48417400200A
:104AE000D3E738B5002419E0D8480068C07AA0425E
:104AF00004D0D6480068407DA04200D10CE0D349E4
:104B0000496808786B4601222146FDF73FFA10B14B
:104B10004FF0FF3038BD00BF601CC4B2CB484068C6
:104B20000079A042E0DC0020F4E770B504460D46B1
:104B3000C6480068C07AA04204D0C4480068407DDE
:104B4000A04202D14FF0FF3070BDC04840680079EC
:104B5000A04202DC4FF0FF30F6E7BC494968087814
:104B60002B4601222146FDF711FAEDE738B5044640
:104B7000B64890F82300A04201D1002038BD14B1FE
:104B80003020009001E000200090B048807C20B1EF
:104B90009DF8000040F002000090AC4890F8220020
:104BA00020B19DF8000040F080000090A74A1268F4
:104BB000117DA64A526810786B460122FDF784F9F0
:104BC00010B14FF0FF30D9E7A04880F82340002013
:104BD000D4E738B5044604F0700010B1012000900D
:104BE00005E014B10020009001E040200090974AB9
:104BF0001268917C954A526810786B460122FDF745
:104C000063F920B1002191488172481E38BD9DF89A
:104C1000000020F040018D4801730020009004F056
:104C2000400020B99DF8000040F00400009004F01E
:104C3000200020B99DF8000040F00200009004F030
:104C4000100020B99DF8000040F00100009004F031
:104C5000080020B99DF8000040F0380000907B4A21
:104C60001268D17C794A526810786B460122FDF7B0
:104C70002BF920B1002175488172481EC6E724B186
:104C8000082C02D00020FFF771FF704884720021C9
:104C900001753220FBF79CFB0020B7E738B50446CE
:104CA0006A48807CA04201D1002038BD002C46D04B
:104CB000664A12681179654A526810786B4601227B
:104CC000FDF764F910B14FF0FF30EEE79DF80000FA
:104CD00020F0200000905D4A126811795B4A52680A
:104CE00010786B460122FDF7EFF810B14FF0FF305E
:104CF000DBE70320FBF76CFB02200090534890F8A1
:104D0000220020B19DF8000040F0800000904F4844
:104D100090F8230020B19DF8000040F03000009092
:104D20004A4A1268117D494A526810786B4601223E
:104D3000FDF7CAF8002851D04FF0FF30B5E7434ADD
:104D400012681179414A526810786B460122FDF7CA
:104D50001DF910B14FF0FF30A7E73C48807A00F012
:104D6000010028B19DF8000040F02000009004E010
:104D70009DF8000020F020000090344A126811795C
:104D8000324A526810786B460122FDF79DF810B147
:104D90004FF0FF3089E70320FBF71AFB2B4890F810
:104DA000220010B18020009001E0002000902748F0
:104DB00090F8230020B19DF8000040F030000090F2
:104DC000224A1268117D214A526810786B460122EE
:104DD000FDF77AF810B14FF0FF3066E71B48847496
:104DE000002062E708B51948807A10B94FF0FF300B
:104DF00008BD00200090154A1268D17B134A526802
:104E000010786B460122FDF75FF810B14FF0FF30CC
:104E1000EEE70E4A126851790C4A526810786B46D8
:104E20000122FDF751F810B14FF0FF30E0E7074ADB
:104E300012681179054A526810786B460122FDF715
:104E400043F828B14FF0FF30D2E70000C80100203E
:104E5000F74890F82400002850D00C200090F44A25
:104E600012681179F24A526810786B460122FDF7F8
:104E70002BF810B14FF0FF30BAE7C0200090EC489B
:104E8000807A00F0010020B19DF8000040F0200081
:104E90000090E74A12681179E54A526810786B462B
:104EA0000122FDF711F810B14FF0FF30A0E7E04804
:104EB000407C10B10220009001E000200090DC4A0C
:104EC0001268D17BDA4A526810786B460122FCF7EF
:104ED000FBFF10B14FF0FF308AE700200090D44A6A
:104EE00012685179D24A526810786B460122FCF759
:104EF000EBFF002852D04FF0FF3079E704200090FC
:104F0000CB4A12681179CA4A526810786B4601225E
:104F1000FCF7DAFF10B14FF0FF3069E7C448807C3E
:104F200020B9C348807A00F0010010B940200090F9
:104F300001E060200090BE4A12681179BC4A5268B4
:104F400010786B460122FCF7BFFF10B14FF0FF3025
:104F50004EE7B748407C10B10120009001E00020EE
:104F60000090B34A1268D17BB14A526810786B4600
:104F70000122FCF7A9FF10B14FF0FF3038E7AC4A2F
:104F800012685179AA4A52681078A94B103301224D
:104F9000FCF79AFF10B14FF0FF3029E7002027E718
:104FA00070B50446002624F00104A14890F82400BE
:104FB00008B1002070BD9E48807A10B94FF0FF30D4
:104FC000F8E79B48057C807A204099490874084698
:104FD000007CA04202D04FF0FF3600E0002614B95A
:104FE0009348007D18B10120FFF736FD02E0002054
:104FF000FFF732FD3CB1FFF7F5FE20B18C48057498
:105000004FF0FF30D6E73046D4E738B5044688483D
:10501000807A10B94FF0FF3038BDBC2C02DB012084
:10502000009015E0622C02DB0220009010E02A2C98
:1050300002DB032000900BE0142C02DB0420009024
:1050400006E00A2C02DB0520009001E0062000901B
:105050007748C07A9DF80010884201D10020DBE734
:10506000734A12689178724A526810786B4601222E
:10507000FCF72AFF10B14FF0FF30CDE79DF800108C
:105080006B48C1720020C7E738B50446282C02DD02
:105090004FF0FF3038BDDCB90020FFF767FD00207E
:1050A0008DF8000007208DF80100614A1268917C9C
:1050B0005F4A526810786B460222FCF705FF10B178
:1050C0004FF0FF30E6E70021594801750020E1E785
:1050D0000120FFF74BFD20208DF80000012C06D1A8
:1050E00000208DF801000520FFF78FFF17E0052C49
:1050F00006DC01208DF801000520FFF786FF0EE099
:10510000142C06DC02208DF801000A20FFF77DFF39
:1051100005E003208DF801001420FFF776FF9DF8CD
:105120000100072101EB8010C0B28DF80100404A58
:105130001268917C3E4A526810786B460222FCF756
:10514000C3FE10B14FF0FF30A4E708213848817248
:1051500000210173012101750020FFF721FF0020CC
:1051600098E738B504463248807A10B94FF0FF30DE
:1051700038BD2F4890F8240010B14FF0FF30F7E70A
:105180002B48007D50B134B1282C04DCE0B2FFF78D
:105190007BFF0020ECE70020FFF776FF042C01DA0C
:1051A000042404E0B4F57A7F01DD4FF47A744FF4FF
:1051B0007A7090FBF4F0401EC0B200901C4A126856
:1051C00051781B4A526810786B460122FCF77CFE2E
:1051D00010B14FF0FF30CBE79DF80000401C4FF4BA
:1051E0007A7191FBF0F081B21148C1810146C98901
:1051F0004810FFF70AFF0020BAE738B504460C480C
:10520000807A10B94FF0FF3038BD022C06D0042C44
:1052100007D0082C08D0102C0FD10BE000200090F4
:105220000EE0082000900BE01020009008E0000045
:10523000C80100201820009002E04FF0FF30E3E7A3
:1052400000BFF948407A9DF80010B0EBE10F01D1A2
:105250000020D9E7F44A1268D179F34A52681078ED
:105260006B460122FCF730FE10B14FF0FF30CBE768
:105270009DF80000C110EC4841720020C4E738B529
:105280000446E948807A10B94FF0FF3038BDFA2C57
:1052900009D0B4F5FA7F09D0B4F57A7F09D0B4F516
:1052A000FA6F0CD108E0002000900BE0082000907D
:1052B00008E01020009005E01820009002E04FF078
:1052C000FF30E3E700BFD848007A9DF80010B0EB4C
:1052D000E10F01D10020D9E7D34A12689179D24A6F
:1052E000526810786B460122FCF7EEFD10B14FF0CA
:1052F000FF30CBE79DF80000C010CB4908720020BA
:10530000C4E71CB580208DF80000C74A1268917C64
:10531000C54A526810786B460122FCF7D5FD10B1E2
:105320004FF0FF301CBD6420FBF752F800208DF8D1
:105330000000BD4A1268917CBB4A526810786B46E7
:105340000122FCF7C1FD10B14FF0FF30EAE7B64A89
:105350001268917DB44A526810786B460622FCF7B9
:1053600015FE10B14FF0FF30DCE79DF80500C007D7
:10537000400F9DF8031001F0010140EA41009DF843
:10538000011001F0010140EA010494B1012C03D1A4
:105390000121A548C17431E0022C03D10021A248AB
:1053A000C1742BE02146A1A003F018FA4FF0FF30A2
:1053B000B8E79D4A1268D1789B4A526810786B46CC
:1053C0000122FCF7E3FD10B14FF0FF30AAE79DF892
:1053D000000000F00F042CB99E4803F0FFF94FF0D5
:1053E000FF309FE7042C06D19BA003F0F7F90121C1
:1053F0008D48C17402E000218B48C174FF218A48A6
:105400008172FF2088490872FF2187484172C1726A
:105410004FF6FF71C181FF21017481740121017375
:1054200080F82210002180F8231041750175163094
:10543000016041608160163880F8241080F82510E2
:10544000C1844FF4FA60FFF71AFF10B14FF0FF303C
:1054500068E70220FFF7D1FE10B14FF0FF3061E79F
:105460002A20FFF7D2FD10B14FF0FF305AE732206B
:10547000FFF777FE10B14FF0FF3053E70020FFF742
:105480008FFD10B14FF0FF304CE70020FFF706FC16
:1054900010B14FF0FF3045E70020FFF79AFB0020E6
:1054A00040E770477CB504460D465F48807A00F0BF
:1054B000700010B94FF0FF307CBD5B4A1268117B61
:1054C000594A526810786B460622FCF75FFD10B10E
:1054D0004FF0FF30F0E79DF801009DF8001040EA22
:1054E000012000B220809DF803009DF8021040EAE0
:1054F000012000B260809DF805009DF8041040EA8C
:10550000012000B2A08015B12846FFF7CAFF002095
:10551000D2E77CB504460D464348807A00F0080087
:1055200010B94FF0FF307CBD3F4A1268517B3E4AB4
:10553000526810786B460622FCF728FD10B14FF038
:10554000FF30F0E79DF801009DF8001040EA0120CF
:1055500000B220809DF803009DF8021040EA01206F
:1055600000B260809DF805009DF8041040EA01201B
:1055700000B2A08015B12846FFF793FF0020D2E7C4
:105580002DE9FE4F05460C462748807A18B94FF0A2
:10559000FF30BDE8FE8F244A1268917B224A526890
:1055A000107802AB0222FCF7F1FC10B14FF0FF3093
:1055B000EFE79DF809009DF8081040EA012006B2C7
:1055C00014B12046FFF76DFF17494968C88805F0F8
:1055D00039FF154901904968B1F9080005F01AFF33
:1055E0008346304605F016FF5946009006F07AF8DB
:1055F0008246019905F0DCFD81461F4905F06AFDF0
:1056000080464FF08F4105F065FF074605F0C6FE66
:1056100028600020BDE710B588B004461CB94FF0E3
:10562000FF3008B010BD29E0C8010020556E737529
:1056300070706F7274656420736F667477617265E1
:105640002070726F64756374207265762025642EF5
:105650000A00000008D2000848616C662073656E7D
:105660007369746976697479207061727420666FE9
:10567000756E642E0D0A000000000C42206830B9DF
:10568000606820B9A06810B9002008B010BDFA49C0
:105690004968087806AB03221146FCF777FC10B185
:1056A0004FF0FF30F1E79DF81800082101EB2010C2
:1056B00000F00F00ADF800009DF8190001EB20107C
:1056C00000F00F00ADF802009DF81A0001EB201069
:1056D00000F00F00ADF8040020684100BDF90000A3
:1056E000403091FBF0F000B2ADF81000606841006E
:1056F000BDF90200403091FBF0F000B2ADF81200AD
:10570000A0684100BDF90400403091FBF0F000B208
:10571000ADF81400D8494968087806AB062211464E
:10572000FCF734FC10B14FF0FF30AEE79DF81900E4
:105730009DF8181040EA012000B2ADF808009DF86D
:105740001B009DF81A1040EA012000B2ADF80A00D3
:105750009DF81D009DF81C1040EA012000B2ADF834
:105760000C00BDF81000BDF80810084400B2ADF8F8
:105770001000BDF81200BDF80A10084400B2ADF8E0
:105780001200BDF81400BDF80C10084400B2ADF8CA
:105790001400BDF81000000A8DF81800BDF81000C4
:1057A000C0B28DF81900BDF81200000A8DF81A0079
:1057B000BDF81200C0B28DF81B00BDF81400000A3D
:1057C0008DF81C00BDF81400C0B28DF81D00AA4968
:1057D0004968087806AB06221146FCF775FB10B144
:1057E0004FF0FF3051E700204FE70146A248007A12
:1057F00030B1012807D0022809D003280FD10AE0D0
:10580000FA2008800EE04FF4FA7008800AE04FF4A6
:105810007A70088006E04FF4FA60088002E0002009
:10582000088000BF00BF0020704701469248407AC0
:1058300030B1012807D0022808D003280CD108E095
:10584000022008700BE00420087008E008200870AF
:1058500005E01020087002E04FF0FF30704700BFF5
:105860008548C07C18B108784006000E08700020FA
:10587000F4E701468048C07A082817D2DFE800F034
:105880001704070A0D101318BC20088013E06220CB
:10589000088010E02A2008800DE0142008800AE02B
:1058A0000A20088007E00520088004E000BF00BF50
:1058B0000020088000BF00BF0020704701466E48EE
:1058C00090F8240010B14FF0FF3070476A48C0894B
:1058D00008800020F9E7014600200880401E70473C
:1058E00001464FF0FF30704701466348007A30B1FF
:1058F000012807D0022808D003280CD108E05F480F
:1059000008600BE05E48086008E05E48086005E05B
:105910005D48086002E04FF0FF30704700BF002094
:10592000FBE701465448407A30B1012808D00228EC
:105930000AD0032810D10BE04FF4804008800EE01D
:1059400041F69C7008800AE04FF48050088006E021
:105950004FF40060088002E04FF0FF30704700BF56
:105960004548C07C10B10888401008800020F5E749
:1059700001464148007C08700020704701463E48BF
:10598000807A10B10120087001E00020087000202A
:10599000704738B504463848807A10B94FF0FF3068
:1059A00038BD354A1268117C334A526810786B460C
:1059B0000222FCF7EBFA10B14FF0FF30F0E79DF850
:1059C00001009DF8001040EA012000B22080002074
:1059D000E6E72DE9FE4F0746884692461D46DDF86C
:1059E00030B000260024244890F8240010B1601E36
:1059F000BDE8FE8F002028701F48807A10B94FF054
:105A0000FF30F5E71C48007C10B94FF0FF30EFE79E
:105A10001948007C00F0400008B1B01CC6B216481E
:105A2000007C00F0200008B1B01CC6B21248007C17
:105A300000F0100008B1B01CC6B20F48007C00F0A6
:105A4000080008B1B01DC6B20B4A1268917A0A4A22
:105A5000526810786B460222FCF798FA10B14FF0AA
:105A6000FF30C5E79DF801009DF8001040EA0129CC
:105A7000B1450BDA0020BBE7C8010020000003435A
:105A8000000083423333034233338341FC48406890
:105A90004088B9EB600F17DDF94A1268517CF84A6B
:105AA000526810786B460122FCF770FA10B14FF083
:105AB000FF309DE79DF8000000F0100020B1FFF7D7
:105AC00091F96FF0010093E75046FFF7EAFCEC4ACA
:105AD0001268D17AEA4A526810786B463246FCF76F
